:100000000C9428010C9459010C9459010C94590139
:100010000C9459010C9459010C9459010C945901F8
:100020000C9459010C9459010C9459010C945901E8
:100030000C9459010C9459010C9459010C945901D8
:100040000C9459010C9459010C9459010C945901C8
:100050000C9459010C9459010C9459010C94DB0334
:100060000C9459010C94A5030C947B030C94590136
:100070000C9459010C9459010C9459010C94590198
:100080000C9459010C9459010C9459010C94590188
:100090000C9445030C941B030C9425040C945901F7
:1000A0000C9459010C9459010C9459010C94590168
:1000B0000C9459010C9459010C9459010C94590158
:1000C0000C9459010C9459010C9459010C94590148
:1000D0000C9459010C9459010C9459010C94590138
:1000E0000C9459010C94C9050C94AF010C94C105F2
:1000F0000C943F050C94C5050C9482010C94940556
:100100000C94D3050C949C050C94A0050C949805B4
:100110000C94BB050C94A9050C94CF050C946F02AC
:100120000C9430040C94A3050C9444050C94B30572
:100130000C94BE010C94AD050C9422020C94E001C9
:100140000C94D2010C94B705000021002400270074
:100150002A002D00300033000101000004010701D6
:100160000A0100002200250028002B002E0031008B
:10017000340002010000050108010B010505050519
:10018000070508080808020202020A0A080804040F
:10019000040401010101010101010303030303033D
:1001A0000303040707070C0C0C0C0C0C0C0C0202CC
:1001B000020206060606060606060B0B0B0B0B0BC9
:1001C0000B0B010210202008081020401020408056
:1001D000020102010804020101020408102040800B
:1001E0008040201008040201800402018040201099
:1001F00008040201080402010102040810204080E2
:10020000010204081020408000000A0B02090C0DB6
:100210000E080703040100000000000000000000B9
:1002200000000000000000000000000000000000CE
:10023000000000001211100000000000000000008B
:10024000000000000000000000000000000030047A
:1002500011241FBECFEFD1E2DEBFCDBF00E00CBF47
:1002600012E0A0E0B2E0E8E1FCE000E00BBF02C079
:1002700007900D92A431B107D9F723E0A4E1B2E0D1
:1002800001C01D92A935B207E1F711E0C8E2D1E043
:1002900000E006C021970109802FFE010E9402069E
:1002A000C732D10780E00807A9F70E9483040C94A5
:1002B0000A060C940000FC01A089B18982E08C93AD
:1002C000A485B5851C92A685B7858FEC8C93108E7E
:1002D000A489B58986E08C93A289B3898C918061C9
:1002E0008C93A289B3898C9188608C93A289B389FD
:1002F0008C9180688C930288F389E02D80818F7DBA
:1003000080830895AF92BF92CF92DF92EF92FF92D7
:100310000F931F93CF93DF936C017B018B01040F2D
:10032000151FEB015E01AE18BF08C017D10759F0C9
:100330006991D601ED91FC910190F081E02DC6010B
:100340001995892B79F7C501DF91CF911F910F91F5
:10035000FF90EF90DF90CF90BF90AF900895FC0199
:10036000538D448D252F30E0842F90E0821B930B1A
:10037000541710F0CF96089501970895FC01918DC0
:10038000828D981761F0A28DAE0FBF2FB11D5D96C3
:100390008C91928D9F5F9F73928F90E008958FEF65
:1003A0009FEF0895FC01918D828D981731F0828D19
:1003B000E80FF11D858D90E008958FEF9FEF089570
:1003C000FC01918D228D892F90E0805C9F4F821BD4
:1003D00091098F73992708958FE192E00E94E001BF
:1003E00021E0892B09F420E0822F08958CEB92E024
:1003F0000E94E00121E0892B09F420E0822F08957A
:10040000FC01A48DA80FB92FB11DA35ABF4F2C9189
:10041000848D90E001968F739927848FA689B78980
:100420002C93A089B1898C91837080648C93938D77
:10043000848D981306C00288F389E02D80818F7D1A
:1004400080830895EF92FF920F931F93CF93DF93D2
:10045000EC0181E0888F9B8D8C8D98131AC0E88900
:10046000F989808185FF15C09FB7F894EE89FF89CF
:100470006083E889F98980818370806480839FBF6D
:1004800081E090E0DF91CF911F910F91FF90EF906D
:100490000895F62E0B8D10E00F5F1F4F0F7311277D
:1004A000E02E8C8D8E110CC00FB607FCFACFE889B8
:1004B000F989808185FFF5CFCE010E940002F1CF3E
:1004C000EB8DEC0FFD2FF11DE35AFF4FF0829FB72C
:1004D000F8940B8FEA89FB8980818062CFCFCF931C
:1004E000DF93EC01888D8823B9F0AA89BB89E8895C
:1004F000F9898C9185FD03C0808186FD0DC00FB602
:1005000007FCF7CF8C9185FFF2CF808185FFEDCF7F
:10051000CE010E940002E9CFDF91CF91089580E0E3
:1005200090E0892B29F00E94F60181110E940000C1
:1005300080E090E0892B29F00E94EC0181110E945B
:10054000000080E090E0892B49F080E090E0892B6A
:1005500029F00E94000081110E94000080E090E0DC
:10056000892B49F080E090E0892B29F00E9400005F
:1005700081110C94000008953FB7F89480911902FE
:1005800090911A02A0911B02B0911C0226B5A89B63
:1005900005C02F3F19F00196A11DB11D3FBFBA2F15
:1005A000A92F982F8827BC01CD01620F711D811DD5
:1005B000911D42E0660F771F881F991F4A95D1F75A
:1005C00008958F929F92AF92BF92CF92DF92EF9257
:1005D000FF924B015C010E94BC026B017C010E94F6
:1005E000BC026C197D098E099F09683E7340810524
:1005F0009105A8F321E0821A9108A108B10888EEBC
:10060000C80E83E0D81EE11CF11C81149104A104E2
:10061000B10429F7FF90EF90DF90CF90BF90AF909B
:100620009F908F9008958BB1599A61E070E080E0BF
:1006300090E00C94E1021F920F920FB60F921124DA
:100640000BB60F922F933F934F935F936F937F93CC
:100650008F939F93AF93BF93EF93FF938FE192E0BC
:100660000E940002FF91EF91BF91AF919F918F91F6
:100670007F916F915F914F913F912F910F900BBEA2
:100680000F900FBE0F901F9018951F920F920FB6EC
:100690000F9211240BB60F922F938F939F93EF938A
:1006A000FF93E0912F02F09130028081E0913502BA
:1006B000F091360282FD1DC09081809138028F5FDB
:1006C0008F7320913902821741F0E0913802F0E0F7
:1006D000E15EFD4F958F80933802FF91EF919F91DE
:1006E0008F912F910F900BBE0F900FBE0F901F9008
:1006F00018958081F2CF1F920F920FB60F9211249E
:100700000BB60F922F933F934F935F936F937F930B
:100710008F939F93AF93BF93EF93FF938CEB92E0F4
:100720000E940002FF91EF91BF91AF919F918F9135
:100730007F916F915F914F913F912F910F900BBEE1
:100740000F900FBE0F901F9018951F920F920FB62B
:100750000F9211240BB60F922F938F939F93EF93C9
:10076000FF93E091CC02F091CD028081E091D20222
:10077000F091D30282FD1DC090818091D5028F5FE0
:100780008F732091D602821741F0E091D502F0E0FC
:10079000E454FD4F958F8093D502FF91EF919F9187
:1007A0008F912F910F900BBE0F900FBE0F901F9047
:1007B00018958081F2CF1F920F920FB60F921124DD
:1007C0002F933F938F939F93AF93BF938091150285
:1007D00090911602A0911702B09118023091140264
:1007E00023E0230F2D3758F50196A11DB11D20934D
:1007F00014028093150290931602A0931702B093EF
:1008000018028091190290911A02A0911B02B091D6
:100810001C020196A11DB11D8093190290931A022A
:10082000A0931B02B0931C02BF91AF919F918F9137
:100830003F912F910F900FBE0F901F90189526E8B3
:10084000230F0296A11DB11DD2CF1F920F920FB69A
:100850000F92112459980F900FBE0F901F9018956A
:10086000EFE1F2E01382128248EE53E060E070E0C4
:10087000448355836683778385E092E09183808308
:100880002DEC30E0358724872CEC30E03787268745
:1008900028EC30E0318B208B29EC30E0338B228B3D
:1008A0002AEC30E0358B248B2EEC30E0378B268B16
:1008B000118E128E138E148EECEBF2E013821282E4
:1008C00044835583668377839183808385EC90E0AE
:1008D0009587848784EC90E09787868780EC90E00A
:1008E000918B808B81EC90E0938B828B82EC90E0FB
:1008F000958B848B86EC90E0978B868B118E128E75
:10090000138E148E0895789484B5826084BD84B566
:10091000816084BD85B5826085BD85B5816085BDFA
:1009200080916E00816080936E00109281008091B2
:10093000810082608093810080918100816080933A
:100940008100809180008160809380008091B1005F
:1009500084608093B1008091B00081608093B0008A
:1009600080919100826080939100809191008160DC
:10097000809391008091900081608093900080919D
:10098000A10082608093A1008091A100816080938A
:10099000A1008091A00081608093A000809121013E
:1009A00082608093210180912101816080932101E7
:1009B0008091200181608093200180917A00846081
:1009C00080937A0080917A00826080937A0080918F
:1009D0007A00816080937A0080917A0080688093A9
:1009E0007A001092C10068EE73E080E090E00E940F
:1009F000E1024FEC51E0FA01649129E831E0F9019C
:100A00008491882399F090E0880F991FFC01E85B9E
:100A1000FE4FA591B491FC01EE59FE4F8591949142
:100A20008FB7F8949C91692B6C938FBFE5E1F2E04E
:100A30008491FA014491F9012491222309F432C0EE
:100A4000882311F181508231F8F4E82FF0E08827F3
:100A5000E35DFA4F8F4F0C9402069C05A0053F05FD
:100A6000940598054405A305A905AD05B305B7058B
:100A7000BB05C105C5054405C905CF05D305809152
:100A800080008F7780938000E22FF0E0EE0FFF1F51
:100A9000EE59FE4FA591B4918FB7F8949C91492BD4
:100AA0004C938FBF519A59988CEB92E00E945B0156
:100AB0008FE192E00E945B018091C9008464809381
:100AC000C900D1E08FE192E00E94E001892B49F05A
:100AD0008FE192E00E94BE01682F8CEB92E00E94B1
:100AE00022028CEB92E00E94E001892BD1F08CEB8A
:100AF00092E00E94BE01C82F80910002882309F471
:100B000056C00E9413038091C90081608093C90080
:100B10006C2F8FE192E00E94220210920002D0938B
:100B20001E020E948F02CECF809180008F7DAACFBF
:100B300080918000877FA6CF84B58F7784BDA4CFB6
:100B400084B58F7DFBCF8091B0008F778093B0000C
:100B50009BCF8091B0008F7DF9CF809190008F77EF
:100B60008093900091CF809190008F7DF9CF8091FC
:100B70009000877FF5CF8091A0008F778093A000B1
:100B800083CF8091A0008F7DF9CF8091A000877FD7
:100B9000F5CF809120018F778093200175CF8091D0
:100BA00020018F7DF9CF80912001877FF5CF809143
:100BB0001E028823C1F0C0931D0210921E020E94E3
:100BC00013038091C9008E7F8093C9006C2F8FE141
:100BD00092E00E94220280911D02813B09F0A1CF88
:100BE000D09300029ECFD09300020E941303809105
:100BF000C9008E7F8093C9006C2F8FE192E00E9424
:100C000022028FCFEE0FFF1F881F8BBF0790F69138
:080C1000E02D1994F894FFCFC8
:100C1800010000000022028201AF016F02E001BE64
:040C280001D20100F4
:00000001FF
