:020000020000FC
:0200000085C0B9
:1000BC0000C00FB70F9300FE11C0643058F0000061
:1000CC00653004F4B695B1BBB695639507C0E8945A
:1000DC0000F804C041BB46954695639501FE0DC0E2
:1000EC00743028F0552752B9E89401F806C052B97B
:1000FC00220F3695522F532B73950F910FBF1895D6
:10010C000FEF0DBF01E20EBF0FEF10E001B900BB06
:10011C0012B911BB00EA08B9389A40980CE014E304
:10012C00009329011093280100E0009320010DE0B9
:10013C000093210102E00093730000240027112793
:10014C00222733274427BB2766275527772788275D
:10015C009927AA277894E894359B03C01CD0359B2B
:10016C0006D0379BF8CF17D0379B08D0F4CF662733
:10017C0040E8B0E8689400F80AD00895772721E0A9
:10018C0030E8522F532B689401F801D00895409A0F
:10019C0002D0409808958FEF9FEFA1E081509040DE
:0601AC00A040E0F70895F9
:00000001FF
