:020000040000FA
:100000000C94D1000C94F9000C94F9000C94F900B4
:100010000C94F9000C94F9000C94F9000C94F9007C
:100020000C94F9000C94F9000C94F9000C94F9006C
:100030000C94F9000C94F9000C94F9000C94F9005C
:100040000C9408030C94F9000C94D6020C94B002A2
:100050000C9452030C94F9000C94F9000C94F900E0
:100060000C94F9000C94F90000407A10F35A00A0A7
:10007000724E18090010A5D4E80000E87648170071
:1000800000E40B54020000CA9A3B000000E1F505B1
:10009000000080969800000040420F000000A086FB
:1000A00001000000102700000000E803000000002D
:1000B0006400000000000A000000000001000000D1
:1000C00000002C76D888DC674F0823DFC1DFAE59EB
:1000D000E1B1B796E5E3E453C63AE651997696E87E
:1000E000E6C28426EB898C9B62ED407C6FFCEFBC02
:1000F0009C9F40F2BAA56FA5F490055A2AF75C932D
:100100006B6CF9676DC11BFCE0E40D47FEF520E662
:10011000B500D0ED902E0300943577050080841E45
:10012000080000204E0A000000C80C333333330FA0
:10013000986E12831141EF8D2114893BE65516CF3D
:10014000FEE6DB18D1844B381BF77C1D901DA4BB49
:10015000E424203284725E228100C9F124ECA1E5FE
:100160003D2700000000250028002B0000000000B3
:10017000240027002A0004040404040404040202E6
:100180000202020203030303030301020408102016
:1001900040800102040810200102040810205D03C1
:1001A000930611241FBECFEFD8E0DEBFCDBF21E004
:1001B000A6E2B1E001C01D92AB3DB207E1F711E04C
:1001C000A0E0B1E0EAE5F6E102C005900D92A632AA
:1001D000B107D9F710E0C0EDD0E004C02197FE01CF
:1001E0000E942809CF3CD107C9F70E94C3030C9491
:1001F000200B0C9400002091D5013091D60182177C
:10020000930738F42091D1013091D20121153105A5
:1002100029F41092330183E391E00895820F931F34
:1002200008950895AF92BF92CF92DF92EF92FF921E
:100230000F931F93CF93DF936C017B018B01040F0E
:10024000151FEB015E01AE18BF08C017D10759F0AA
:100250006991D601ED91FC910190F081E02DC601EC
:100260000995892B79F7C501DF91CF911F910F91E6
:10027000FF90EF90DF90CF90BF90AF900895FC017A
:10028000538D448D252F30E0842F90E0821B930BFB
:10029000541710F0CF96089501970895FC01918DA1
:1002A000828D981761F0A28DAE0FBF2FB11D5D96A4
:1002B0008C91928D9F5F9F73928F90E008958FEF46
:1002C0009FEF0895FC01918D828D981731F0828DFA
:1002D000E80FF11D858D90E008958FEF9FEF089551
:1002E000FC01918D228D892F90E0805C9F4F821BB5
:1002F00091098F739927089584E391E00E9470011A
:1003000021E0892B09F420E0822F089580E090E01D
:10031000892B29F00E947C0181110C940000089522
:10032000FC01A48DA80FB92FB11DA35ABF4F2C916A
:10033000848D90E001968F739927848FA689B78961
:100340002C93A089B1898C91837080648C93938D58
:10035000848D981306C00288F389E02D80818F7DFB
:1003600080830895EF92FF920F931F93CF93DF93B3
:10037000EC0181E0888F9B8D8C8D98131AC0E889E1
:10038000F989808185FF15C09FB7F894EE89FF89B0
:100390006083E889F98980818370806480839FBF4E
:1003A00081E090E0DF91CF911F910F91FF90EF904E
:1003B0000895F62E0B8D10E00F5F1F4F0F7311275E
:1003C000E02E8C8D8E110CC00FB607FCFACFE88999
:1003D000F989808185FFF5CFCE010E949001F1CF90
:1003E000EB8DEC0FFD2FF11DE35AFF4FF0829FB70D
:1003F000F8940B8FEA89FB8980818062CFCFCF93FD
:10040000DF93EC01888D8823B9F0AA89BB89E8893C
:10041000F9898C9185FD03C0808186FD0DC00FB6E2
:1004200007FCF7CF8C9185FFF2CF808185FFEDCF60
:10043000CE010E949001E9CFDF91CF9108953FB79F
:10044000F89480912B0190912C01A0912D01B091F5
:100450002E0126B5A89B05C02F3F19F00196A11DBE
:10046000B11D3FBFBA2FA92F982F8827BC01CD01FE
:10047000620F711D811D911D42E0660F771F881F5D
:10048000991F4A95D1F708958F929F92AF92BF928C
:10049000CF92DF92EF92FF924B015C010E941F020C
:1004A0006B017C010E941F026C197D098E099F0956
:1004B000683E734081059105A8F321E0821A9108F6
:1004C000A108B10888EEC80E83E0D81EE11CF11C1B
:1004D00081149104A104B10429F7FF90EF90DF90FB
:1004E000CF90BF90AF909F908F900895CF93DF9360
:1004F000EC0188819981009711F00E94CA09198244
:1005000018821D821C821B821A82DF91CF9108956E
:100510000F931F93CF93DF93EC018881998100970C
:1005200059F02A813B812617370730F081E0DF91AF
:10053000CF911F910F9108958B016F5F7F4F0E94A4
:10054000530A009759F0998388831B830A832C816F
:100550003D81232B59F7FC011082E8CF80E0E7CFE3
:100560001F920F920FB60F9211242F933F934F9328
:100570005F936F937F938F939F93AF93BF93EF930B
:10058000FF9384E391E00E949001FF91EF91BF916E
:10059000AF919F918F917F916F915F914F913F911B
:1005A0002F910F900FBE0F901F9018951F920F92D2
:1005B0000FB60F9211242F938F939F93EF93FF9376
:1005C000E0914401F09145018081E0914A01F09170
:1005D0004B0182FD1BC0908180914D018F5F8F7315
:1005E00020914E01821741F0E0914D01F0E0EC5C6A
:1005F000FE4F958F80934D01FF91EF919F918F91C9
:100600002F910F900FBE0F901F9018958081F4CFFF
:100610001F920F920FB60F9211242F933F938F9337
:100620009F93AF93BF938091270190912801A09150
:100630002901B0912A013091260123E0230F2D37A3
:1006400058F50196A11DB11D209326018093270125
:1006500090932801A0932901B0932A0180912B0146
:1006600090912C01A0912D01B0912E010196A11D18
:10067000B11D80932B0190932C01A0932D01B09379
:100680002E01BF91AF919F918F913F912F910F902C
:100690000FBE0F901F90189526E8230F0296A11DFC
:1006A000B11DD2CF1F920F920FB60F9211245A98FC
:1006B0000F900FBE0F901F90189510923701109257
:1006C000360188EE93E0A0E0B0E08093380190938B
:1006D0003901A0933A01B0933B0187E191E09093F7
:1006E00035018093340185EC90E090934101809333
:1006F000400184EC90E0909343018093420180ECB0
:1007000090E0909345018093440181EC90E09093B8
:1007100047018093460182EC90E0909349018093D9
:10072000480186EC90E090934B0180934A0110922F
:100730004D0110924E0110924F01109250011092F3
:10074000D2011092D1011092D4011092D3011092D3
:10075000D6011092D50170E060E081ED91E00E9439
:100760008802811104C081ED91E00C947602109210
:10077000D6011092D50165E271E08091D10190918E
:10078000D2010C94190BCF93DF93CDB7DEB7A997A5
:100790000FB6F894DEBF0FBECDBF789484B58260EB
:1007A00084BD84B5816084BD85B5826085BD85B515
:1007B000816085BD80916E00816080936E00109293
:1007C000810080918100826080938100809181000E
:1007D000816080938100809180008160809380009F
:1007E0008091B10084608093B1008091B0008160FD
:1007F0008093B00080917A00846080937A00809129
:100800007A00826080937A0080917A008160809380
:100810007A0080917A00806880937A001092C100FB
:1008200068EE73E080E090E00E944402E8E9F1E0C5
:100830002491E4E8F1E084918823C9F090E0880FE6
:10084000991FFC01E459FE4F45915491FC01EE596A
:10085000FE4FA591B4919FB7F894FA01808120953D
:10086000822380838C91E22FE823EC939FBF87E063
:100870008AB988EF8BB9E0914401F091450182E09B
:100880008083E0914001F09141011082E0914201AA
:10089000F09143018FEC808310924C01E09148016C
:1008A000F091490186E08083E0914601F091470193
:1008B000808180618083E0914601F09147018081D1
:1008C00088608083E0914601F091470180818068D3
:1008D0008083E0914601F091470180818F7D808384
:1008E0008091C10084648093C1008091C0008160C8
:1008F0008093C00061E070E080E090E00E944402DC
:1009000081E48093320144244394512C84E391E0A8
:100910000E947001892BB1F084E391E00E944E01A6
:10092000909100019923C9F09091320198130AC067
:100930001092000181E0809331018091C0008E7F90
:100940008093C00020E030E0232B01F30E947C0163
:100950008823E1F20E940000D9CF809131018823E1
:1009600089F31092310180912F019091300103970A
:1009700021F41092300110922F0181E08093000148
:1009800080E480937C0080917A00806480937A0078
:1009900080917A0086FDFCCF80917800809179006B
:1009A0005A9A61E070E080E090E00E944402E09199
:1009B0002F01F0913001EE0FFF1FEE0FFF1FE95FD7
:1009C000FE4F60817181828193816DB67EB61BA2DC
:1009D0001AA21DA21CA21FA21EA28E010F5F1F4FF2
:1009E00022E044E00E949C067C01009779F0FC0123
:1009F00001900020E9F731978F01081B190BB8010E
:100A0000CE0182960E9488028111C6C0CE018296D4
:100A10000E9476028091D1019091D201009709F451
:100A2000C5C06AA17BA16115710509F4BDC04091E3
:100A3000D3015091D4012EA13FA14217530708F4CE
:100A4000B3C00E94190B8EA19FA19093D6018093F1
:100A5000D5011FA21EA28AA19BA1009711F00E949E
:100A6000CA098091D5019091D6019C012F5F3F4F1B
:100A700002964DB75EB7481B590B0FB6F8945EBF90
:100A80000FBE4DBF6DB77EB76F5F7F4F5B01FB0140
:100A900037FFA3C015018501AAE2DA2EBAE3CB2EF7
:100AA0008AE4982E9AE5892E8091D5019091D601FD
:100AB0007801EA18FB08E816F90608F092C0C701A9
:100AC0000E94FB00DC018C91803319F42AE0F801CC
:100AD0002083C7010E94FB00DC018C91813319F453
:100AE0002AE1F8012083C7010E94FB00DC018C9100
:100AF000823311F4F801D082C7010E94FB00DC01AF
:100B00008C91833311F4F801C082C7010E94FB006D
:100B1000DC018C91843311F4F8019082C7010E94AA
:100B2000FB00DC018C91853311F4F8018082C70150
:100B30000E94FB00DC018C91863319F42AE6F8014F
:100B40002083C7010E94FB00DC018C91873319F4DC
:100B50002AE7F8012083C7010E94FB00DC018C9189
:100B6000883319F42AE8F8012083C7010E94FB00AA
:100B7000DC018C91893319F42AE9F8012083C7013B
:100B80000E94FB00DC018C918E3219F42FEFF801EA
:100B900020830F5F1F4F88CF1FA30EA3B7018AA129
:100BA0009BA10E94190B36CF0E94CA098AA19BA162
:100BB0009093D2018093D1018CA19DA19093D401F7
:100BC0008093D3018EA19FA19093D6018093D501EC
:100BD0001BA21AA21DA21CA23CCF119221503109C6
:100BE00057CF4DB75EB7481B590B0FB6F8945EBF91
:100BF0000FBE4DBF2DB73EB72F5F3F4F39A728A778
:100C00004901880E991E7501D9018A169B0631F19A
:100C1000F70101917F0170E060E050E040E010E0FA
:100C20006801042E02C0D594C7940A94E2F7C0FE6E
:100C30000EC0F7E0CF2ED12CC41AD50AF20102C0A3
:100C4000EE0FFF1FCA94E2F76F016E2B7D294F5FF5
:100C50005F4F4830510521F76D93D7CFD5011596D9
:100C60001C92159716961C922B5F3F4F4FE05DE14B
:100C7000E8A5F9A56191F9A7E8A7562768E070E013
:100C8000DA01440F551FB7FF04C0F1E24F27F0E12E
:100C90005F2761507109A1F768A579A52617370765
:100CA00039F770E060E030E020E0F201022E02C08F
:100CB000EE0FFF1F0A94E2F7E423F523EF2B69F010
:100CC000EFE0F0E0E21BF30BD20102C0AA0FBB1F62
:100CD000EA95E2F7FD016A2B7F2B2F5F3F4F203112
:100CE000310519F7F501E80FF91F70836183B7E04B
:100CF000AB0EB11CF10161911F0184E391E00E94F0
:100D0000B201A214B304B1F70FB6F8947EBE0FBEC1
:100D10006DBE80912F01909130010196909330012A
:100D200080932F010FCE8091D1019091D201009735
:100D300011F00C94CA090895EF920F931F93CF936B
:100D4000DF93E80134E047FD34E1042E000C550B3D
:100D500057FF03C0519541955109E32E022F242FCF
:100D6000AE010E94BA06CE01DF91CF911F910F9183
:100D7000EF900895A9E0B0E0E0ECF6E00C94F708FD
:100D80006A01F22EB02E102FFBE3AF2EA01608F44E
:100D90001BE31F5F012F27E0AE014F5F5F4F0E94F3
:100DA0001908BC018981982F9970913009F43FC0CE
:100DB0009BE2E1FC04C09E2D9170E0FC3AC05E2DE8
:100DC0005071E82FE87083FF46C084E0911101C0A4
:100DD00083E0EF2DE81B8F1508F0E0E0D6018E2FA1
:100DE00020E2552351F1992329F0D6019C93C601A5
:100DF00001966C0196012D5F3F4FE2FE24C08EE408
:100E0000D6018C9391E411969C93119712968C9332
:100E1000D9018E2F90E281111BC0E20FF32FF11D3B
:100E200010828EEF9FEF2996ECE00C9413099DE25F
:100E3000C6CF90E2C4CF2D9381508111FCCFCE0E4E
:100E4000D11CE0E0D0CF8EE6D6018C9391E6DBCFCB
:100E50009D938150E0CF482F447082FF3DC084E0D5
:100E6000911101C083E08F1510F4EF2DE81BD6011E
:100E70008E2F20E2552309F1992329F0D6019C9366
:100E8000C60101966C0196012D5F3F4FE2FE1BC02B
:100E900089E4D6018C938EE411968C93119786E4A5
:100EA00012968C93D9018E2F90E2882309F4B5CF46
:100EB0009D938150FACF2D9381508111FCCFCE0E9E
:100EC000D11CE0E0D9CF89E6D6018C938EE611964D
:100ED0008C93119786E6E4CF9B0177FF02C030E048
:100EE00020E0A1E0B0E0911102C0B0E0A0E0F90183
:100EF0003196AE0FBF1F8B2C912CBB2009F461C023
:100F00005401EFEFAE1ABE0AAA0DBB1DFA161B065E
:100F100019F014F04F2D4A1B511188C0E3FC59C041
:100F20007601A42FB0E2A1114FC0C40ED11C9923A9
:100F300009F45BC040E0D6011196F60190836D0183
:100F4000552309F448C0012F060F9A81582F50717C
:100F500084FF03C0913309F4015010160CF047C010
:100F6000093008F008E0EEE2FE2E5B01A01AB1089D
:100F700085019194819491082F3F320729F4D6017D
:100F8000FC92F60131966F016217730794F1021714
:100F900013077CF5DB01A21BB30BAA24A394B12C8D
:100FA000AC0EBD1EAA0DBB1D11968C9121503109AE
:100FB000D601119628153905F4F0F60180836D01EC
:100FC000DBCFB12CA12CA0CFF701B1937F01A150B1
:100FD000AACF9111B0CFD601942F50E302C05D93F8
:100FE00091509111FCCFC40ED11C40E0ACCF01E078
:100FF000BACF80E3DBCF6217730731F4963388F4FE
:10100000953311F4552369F0F6018083FD01842F97
:1010100090E2811108C0A40FB11D1C9290E080E005
:1010200002CF81E3F1CF91938150F3CF911183CF20
:101030008ACF283008F027E03327DA01990F311DD5
:1010400087FD916000966105710539F432602E5F6D
:101050003D9330E32A95E1F708959F3F30F08038C3
:101060007105610509F03C5F3C5F3D93913008F0EC
:101070008068911DDF93CF931F930F93FF92EF92A0
:10108000192F987F9695E92F96959695E90FFF274A
:10109000EE53FF4F99273327EE24FF24A701E701E2
:1010A00005900894079428F4360FE71EF81E491F90
:1010B000511D660F771F881F991F0694A1F7059091
:1010C000079428F4E70EF81E491F561FC11D770F1D
:1010D000881F991F661F0694A1F70590079428F4AE
:1010E000F80E491F561FC71FD11D880F991F661F75
:1010F000771F0694A1F70590079420F4490F561F17
:10110000C71FD81F990F661F771F881F0694A9F75E
:1011100084911095177041F0D695C79557954795CE
:10112000F794E7941A95C1F7E8E6F0E06894159013
:10113000159135916591959105907FE27395E11830
:10114000F10A430B560BC90BD009C0F7E10CF11E95
:10115000431F561FC91FD01D7EF4703311F48A95AA
:10116000E6CFE894015030F0080F0AF40027021788
:1011700008F4202F2395022F7A3328F079E37D930A
:101180002A95E9F710C07D932A9589F606949795DC
:101190006795379517951794E118F10A430B560B8D
:1011A000C90BD00998F023957E9173957A3308F096
:1011B00070E37C932013B8F77E9170617D9330F0DB
:1011C000839571E37D9370E32A95E1F71124EF9005
:1011D000FF900F911F91CF91DF91992787FD9095F7
:1011E00008952F923F924F925F926F927F928F92CB
:1011F0009F92AF92BF92CF92DF92EF92FF920F93A6
:101200001F93CF93DF93CDB7DEB7CA1BDB0B0FB6AF
:10121000F894DEBF0FBECDBF09942A88398848886C
:101220005F846E847D848C849B84AA84B984C88402
:10123000DF80EE80FD800C811B81AA81B981CE0FF9
:10124000D11D0FB6F894DEBF0FBECDBFED010895DE
:10125000EE0FFF1F0590F491E02D09940F931F935B
:10126000CF93DF938230910510F482E090E0E0911B
:10127000D901F091DA0130E020E0B0E0A0E0309751
:1012800099F42115310509F44AC0281B390B243083
:101290003105D8F58A819B816115710589F1FB01C2
:1012A00093838283FE0111C04081518102811381A9
:1012B00048175907E0F04817590799F4109761F05B
:1012C00012960C93129713961C933296CF01DF91CE
:1012D000CF911F910F9108950093D9011093DA01D6
:1012E000F4CF2115310551F04217530738F0A90109
:1012F000DB019A01BD01DF01F801C1CFEF01F9CF98
:101300009093DA018093D901CDCFFE01E20FF31F54
:10131000819391932250310939832883D7CF20912B
:10132000D7013091D801232B41F420910301309152
:1013300004013093D8012093D7012091010130910D
:1013400002012115310541F42DB73EB74091050149
:1013500050910601241B350BE091D701F091D80183
:10136000E217F307A0F42E1B3F0B2817390778F07C
:10137000AC014E5F5F4F2417350748F04E0F5F1FDB
:101380005093D8014093D701819391939FCFF0E080
:10139000E0E09CCFCF93DF930097E9F0FC01329718
:1013A00013821282A091D901B091DA01ED0130E0EF
:1013B00020E01097A1F420813181820F931F2091AA
:1013C000D7013091D8012817390709F061C0F0938F
:1013D000D801E093D701DF91CF910895EA01CE17AC
:1013E000DF07E8F54A815B819E0141155105B1F7A0
:1013F000E901FB83EA8349915991C40FD51FEC178A
:10140000FD0761F4808191810296840F951FE901A7
:1014100099838883828193819B838A83F0E0E0E0D3
:1014200012968D919C9113970097B9F52D913C914F
:101430001197CD010296820F931F2091D701309111
:10144000D8012817390739F6309751F51092DA018B
:101450001092D901B093D801A093D701BCCFD38308
:10146000C28340815181840F951FC817D90761F449
:101470004E5F5F4F88819981480F591F5183408388
:101480008A819B81938382832115310509F0B0CF36
:10149000F093DA01E093D9019ECFFD01DC01C0CFCA
:1014A00013821282D7CFB0E0A0E0E9E5FAE00C9415
:1014B000F3088C01009751F4CB010E942E098C0196
:1014C000C801CDB7DEB7E0E10C940F09FC01E60FCF
:1014D000F71F9C0122503109E217F30708F49DC061
:1014E000D901CD91DC911197C617D70798F0C53077
:1014F000D10530F3CE0104978617970708F3C61B72
:10150000D70B2297C193D1936D937C93CF010E9407
:10151000CA09D6CF5B01AC1ABD0A4C018C0E9D1EC8
:10152000A091D901B091DA01512C412CF12CE12C80
:10153000109731F58091D7019091D80188159905C0
:1015400009F05CC04616570608F058C080910101AA
:1015500090910201009741F48DB79EB7409105012B
:1015600050910601841B950BE817F90708F055C048
:10157000F093D801E093D701F90171836083A0CF84
:101580008D919C91119712966C90129713967C9066
:101590001397A815B90559F56C0142E0C40ED11C8A
:1015A000CA14DB0420F1AC014A195B09DA01129676
:1015B000159780F06282738251834083D9016D93C5
:1015C0007C93E114F10471F0D7011396FC93EE9330
:1015D000129776CF22968C0F9D1FF90191838083FD
:1015E000F301EFCFF093DA01E093D90169CF481608
:1015F000590608F42C017D01D3019ACFCB010E943A
:101600002E097C01009749F0AE01B8010E94100B31
:10161000C8010E94CA09870153CF10E000E050CFF3
:10162000FB01DC0102C001900D9241505040D8F7FF
:101630000895FB01DC0101900D920020E1F708956F
:1016400010E0C0EDD0E004C0FE010E942809219600
:10165000C13DD107C9F7F894FFCF010000DB01803D
:101660000000000042000008420000E841000000C5
:1016700000B20112013F01FF0170014E0162010041
:107E0000112484B714BE81FFF0D085E080938100F7
:107E100082E08093C00088E18093C10086E0809377
:107E2000C20080E18093C4008EE0C9D0259A86E02C
:107E300020E33CEF91E0309385002093840096BBD3
:107E4000B09BFECF1D9AA8958150A9F7CC24DD24C4
:107E500088248394B5E0AB2EA1E19A2EF3E0BF2EE7
:107E6000A2D0813461F49FD0082FAFD0023811F036
:107E7000013811F484E001C083E08DD089C08234E0
:107E800011F484E103C0853419F485E0A6D080C0E4
:107E9000853579F488D0E82EFF2485D0082F10E0AE
:107EA000102F00270E291F29000F111F8ED06801E7
:107EB0006FC0863521F484E090D080E0DECF843638
:107EC00009F040C070D06FD0082F6DD080E0C81688
:107ED00080E7D80618F4F601B7BEE895C0E0D1E017
:107EE00062D089930C17E1F7F0E0CF16F0E7DF06D8
:107EF00018F0F601B7BEE89568D007B600FCFDCFD4
:107F0000A601A0E0B1E02C9130E011968C91119780
:107F100090E0982F8827822B932B1296FA010C0160
:107F200087BEE89511244E5F5F4FF1E0A038BF0790
:107F300051F7F601A7BEE89507B600FCFDCF97BE46
:107F4000E89526C08437B1F42ED02DD0F82E2BD052
:107F50003CD0F601EF2C8F010F5F1F4F84911BD097
:107F6000EA94F801C1F70894C11CD11CFA94CF0C13
:107F7000D11C0EC0853739F428D08EE10CD085E9AC
:107F80000AD08FE07ACF813511F488E018D01DD067
:107F900080E101D065CF982F8091C00085FFFCCF94
:107FA0009093C60008958091C00087FFFCCF809118
:107FB000C00084FD01C0A8958091C6000895E0E648
:107FC000F0E098E1908380830895EDDF803219F02E
:107FD00088E0F5DFFFCF84E1DECF1F93182FE3DFCA
:107FE0001150E9F7F2DF1F91089580E0E8DFEE27F6
:047FF000FF270994CA
:027FFE00040479
:00000001FF
