:100000000C9463010C9494010C9494010C9494014D
:100010000C9494010C9494010C9494010C9494010C
:100020000C9494010C9494010C9494010C949401FC
:100030000C9494010C9494010C9494010C949401EC
:100040000C9494010C9494010C9494010C949401DC
:100050000C9494010C9494010C9494010C94D2038C
:100060000C9494010C949C030C9472030C949401D2
:100070000C9494010C9494010C9494010C949401AC
:100080000C9494010C9494010C9494010C9494019C
:100090000C9494010C9494010C9494010C9494018C
:1000A0000C9494010C9494010C9494010C9494017C
:1000B0000C9494010C9494010C9494010C9494016C
:1000C0000C9494010C9494010C9494010C9494015C
:1000D0000C9494010C9494010C9494010C9494014C
:1000E0000C9494010C94FD010C94AD010C9443020A
:1000F0000C9427040C9490020C94DA010C940B02DB
:100100000C9486070C94E90100407A10F35A00A081
:10011000724E18090010A5D4E80000E876481700D0
:1001200000E40B54020000CA9A3B000000E1F50510
:10013000000080969800000040420F000000A0865A
:1001400001000000102700000000E803000000008C
:100150006400000000000A00000000000100000030
:1001600000002C76D888DC674F0823DFC1DFAE594A
:10017000E1B1B796E5E3E453C63AE651997696E8DD
:10018000E6C28426EB898C9B62ED407C6FFCEFBC61
:100190009C9F40F2BAA56FA5F490055A2AF75C938C
:1001A0006B6CF9676DC11BFCE0E40D47FEF520E6C2
:1001B000B500D0ED902E0300943577050080841EA5
:1001C000080000204E0A000000C80C333333330F00
:1001D000986E12831141EF8D2114893BE65516CF9D
:1001E000FEE6DB18D1844B381BF77C1D901DA4BBA9
:1001F000E424203284725E228100C9F124ECA1E55E
:100200003D2700002200250028002B002E00310091
:10021000340002010000050108010B01000021006B
:10022000240027002A002D003000330001010000C7
:10023000040107010A010505050507050808080866
:10024000020202020A0A080804040404010101016E
:100250000101010103030303030303030407070769
:100260000C0C0C0C0C0C0C0C02020202060606060E
:10027000060606060B0B0B0B0B0B0B0B01021020DB
:1002800020080810204010204080020102010804CC
:100290000201010204081020408080402010080460
:1002A00002018004020180402010080402010804B9
:1002B00002010102040810204080010204081020FD
:1002C00040802704860711241FBECFEFD1E2DEBF96
:1002D000CDBF00E00CBF22E0A6E2B2E001C01D925B
:1002E000AB3DB207E1F712E0A0E0B2E0ECE5F8E1E7
:1002F00000E00BBF02C007900D92A632B107D9F7FC
:1003000011E0C2E6D1E000E006C021970109802F8C
:10031000FE010E94FE09C136D10780E00807A9F757
:100320000E948D040C941C0C0C9400002091D502AA
:100330003091D6028217930738F42091D102309180
:10034000D2022115310529F41092330283E392E0A1
:100350000895820F931F08950895AF92BF92CF9290
:10036000DF92EF92FF920F931F93CF93DF936C0175
:100370007B018B01040F151FEB015E01AE18BF0856
:10038000C017D10759F06991D601ED91FC91019008
:10039000F081E02DC6011995892B79F7C501DF9110
:1003A000CF911F910F91FF90EF90DF90CF90BF9072
:1003B000AF900895FC01538D448D252F30E0842F9C
:1003C00090E0821B930B541710F0CF96089501977D
:1003D0000895FC01918D828D981761F0A28DAE0F6A
:1003E000BF2FB11D5D968C91928D9F5F9F73928FF1
:1003F00090E008958FEF9FEF0895FC01918D828D1D
:10040000981731F0828DE80FF11D858D90E00895E9
:100410008FEF9FEF0895FC01918D228D892F90E041
:10042000805C9F4F821B91098F739927089584E305
:1004300092E00E940B0221E0892B09F420E0822F38
:100440000895FC01A48DA80FB92FB11DA35ABF4F69
:100450002C91848D90E001968F739927848FA689C3
:10046000B7892C93A089B1898C91837080648C9317
:10047000938D848D981306C00288F389E02D8081C6
:100480008F7D80830895EF92FF920F931F93CF93F8
:10049000DF93EC0181E0888F9B8D8C8D98131AC0BF
:1004A000E889F989808185FF15C09FB7F894EE89A6
:1004B000FF896083E889F989808183708064808303
:1004C0009FBF81E090E0DF91CF911F910F91FF904E
:1004D000EF900895F62E0B8D10E00F5F1F4F0F73F6
:1004E0001127E02E8C8D8E110CC00FB607FCFACFB1
:1004F000E889F989808185FFF5CFCE010E9421022C
:10050000F1CFEB8DEC0FFD2FF11DE35AFF4FF08281
:100510009FB7F8940B8FEA89FB8980818062CFCFE7
:10052000CF93DF93EC01888D8823B9F0AA89BB892A
:10053000E889F9898C9185FD03C0808186FD0DC015
:100540000FB607FCF7CF8C9185FFF2CF808185FF36
:10055000EDCFCE010E942102E9CFDF91CF91089526
:1005600080E090E0892B29F00E94170281110E94FF
:10057000000080E090E0892B49F080E090E0892B3A
:1005800029F00E94000081110E94000080E090E0AC
:10059000892B49F080E090E0892B29F00E9400002F
:1005A00081110E94000080E090E0892B49F080E0FA
:1005B00090E0892B29F00E94000081110C9400002A
:1005C00008953FB7F89480912B0290912C02A0914E
:1005D0002D02B0912E0226B5A89B05C02F3F19F021
:1005E0000196A11DB11D3FBFBA2FA92F982F8827B3
:1005F000BC01CD01620F711D811D911D42E0660F8E
:10060000771F881F991F4A95D1F708958F929F925F
:10061000AF92BF92CF92DF92EF92FF924B015C01BB
:100620000E94E1026B017C010E94E1026C197D09CC
:100630008E099F09683E734081059105A8F321E06A
:10064000821A9108A108B10888EEC80E83E0D81E6E
:10065000E11CF11C81149104A104B10429F7FF905D
:10066000EF90DF90CF90BF90AF909F908F900895C4
:10067000CF93DF93EC0188819981009711F00E945C
:10068000A20A198218821D821C821B821A82DF91A3
:10069000CF9108950F931F93CF93DF93EC0188813F
:1006A0009981009759F02A813B812617370730F04E
:1006B00081E0DF91CF911F910F9108958B016F5FC2
:1006C0007F4F0E942B0B009759F0998388831B83DF
:1006D0000A832C813D81232B59F7FC011082E8CF3E
:1006E00080E0E7CF1F920F920FB60F9211240BB646
:1006F0000F922F933F934F935F936F937F938F93BB
:100700009F93AF93BF93EF93FF9384E392E00E9494
:100710002102FF91EF91BF91AF919F918F917F91B6
:100720006F915F914F913F912F910F900BBE0F9062
:100730000FBE0F901F9018951F920F920FB60F9239
:1007400011240BB60F922F938F939F93EF93FF93E8
:10075000E0914402F09145028081E0914A02F091DB
:100760004B0282FD1DC0908180914D028F5F8F737F
:1007700020914E02821741F0E0914D02F0E0EC5CD6
:10078000FD4F958F80934D02FF91EF919F918F9137
:100790002F910F900BBE0F900FBE0F901F901895CA
:1007A0008081F2CF1F920F920FB60F9211242F93D8
:1007B0003F938F939F93AF93BF9380912702909124
:1007C0002802A0912902B0912A023091260223E04A
:1007D000230F2D3758F50196A11DB11D2093260238
:1007E0008093270290932802A0932902B0932A02B3
:1007F00080912B0290912C02A0912D02B0912E029B
:100800000196A11DB11D80932B0290932C02A09301
:100810002D02B0932E02BF91AF919F918F913F9186
:100820002F910F900FBE0F901F90189526E8230F61
:100830000296A11DB11DD2CF1F920F920FB60F923B
:1008400011245A980F900FBE0F901F901895109278
:1008500037021092360288EE93E0A0E0B0E0809379
:10086000380290933902A0933A02B0933B0287E199
:1008700092E0909335028093340285EC90E090935F
:1008800041028093400284EC90E090934302809375
:10089000420280EC90E0909345028093440281EC08
:1008A00090E0909347028093460282EC90E0909310
:1008B00049028093480286EC90E090934B0280932B
:1008C0004A0210924D0210924E0210924F02109264
:1008D00050021092D2021092D1021092D4021092C1
:1008E000D3021092D6021092D50270E060E081ED42
:1008F00092E00E944A03811104C081ED92E00C94C1
:1009000038031092D6021092D50265E272E080910F
:10091000D1029091D2020C94150CCF93DF93CDB7F6
:10092000DEB7A9970FB6F894DEBF0FBECDBF78949F
:1009300084B5826084BD84B5816084BD85B58260E4
:1009400085BD85B5816085BD80916E008160809395
:100950006E001092810080918100826080938100FE
:10096000809181008160809381008091800081600E
:10097000809380008091B10084608093B100809169
:10098000B00081608093B00080919100826080937C
:1009900091008091910081608093910080919000FE
:1009A0008160809390008091A10082608093A1007B
:1009B0008091A10081608093A1008091A00081605E
:1009C0008093A00080912101826080932101809119
:1009D00021018160809321018091200181608093B9
:1009E000200180917A00846080937A0080917A005F
:1009F000826080937A0080917A00816080937A008F
:100A000080917A00806880937A001092C10068EE2D
:100A100073E080E090E00E940603E2EBF2E02491B4
:100A2000ECE6F2E084918823C9F090E0880F991FEA
:100A3000FC01E45EFD4F45915491FC01EE5FFD4FDA
:100A4000A591B4919FB7F894FA01808120958223F3
:100A500080838C91E22FE823EC939FBF87E08AB9D3
:100A600088EF8BB9E0914402F091450282E08083E7
:100A7000E0914002F09141021082E0914202F09137
:100A800043028FEC808310924C02E0914802F09177
:100A9000490286E08083E0914602F091470280811E
:100AA00080618083E0914602F091470280818860F6
:100AB0008083E0914602F0914702808180688083C4
:100AC000E0914602F091470280818F7D8083809182
:100AD000C10084648093C1008091C00081608093D4
:100AE000C00061E070E080E090E00E94060381E4D5
:100AF0008093320222242394312C84E392E00E94DA
:100B00000B02892BB1F084E392E00E94E9019091FD
:100B10000002992389F09091320298130AC0109232
:100B20000002F1E0F09331028091C0008E7F80934B
:100B3000C0000E94B002E1CF809131028823C9F346
:100B40001092310280912F0290913002049721F48B
:100B50001092300210922F0221E020930002809127
:100B60007B00877F80937B0080E480937C00809172
:100B70007A00806480937A0080917A0086FDFCCFB1
:100B800080917800809179005A9A61E070E080E06D
:100B900090E00E940603E0912F02F0913002EE0FE8
:100BA000FF1FEE0FFF1FE95FFD4F608171818281A2
:100BB00093816DB67EB61BA21AA21DA21CA21FA213
:100BC0001EA28E010F5F1F4F22E044E00E948F079C
:100BD0007C01009779F0FC0101900020E9F7319742
:100BE0008F01081B190BB801CE0182960E944A039F
:100BF0008111C6C0CE0182960E9438038091D10235
:100C00009091D202009709F4C5C06AA17BA1611539
:100C1000710509F4BDC04091D3025091D4022EA1B8
:100C20003FA14217530708F4B3C00E94150C8EA1D0
:100C30009FA19093D6028093D5021FA21EA28AA1E3
:100C40009BA1009711F00E94A20A8091D502909179
:100C5000D6029C012F5F3F4F02964DB75EB7481BEF
:100C6000590B0FB6F8945EBF0FBE4DBF6DB77EB780
:100C70006F5F7F4F6B01FB0137FFA3C02601860129
:100C8000FAE0BF2EAAE1AA2EBAE29B2E8AE3882EB2
:100C90008091D5029091D6027801EC18FD08E816F3
:100CA000F90608F092C0C7010E949601DC018C9100
:100CB000803311F4F801B082C7010E949601DC0173
:100CC0008C91813311F4F801A082C7010E94960132
:100CD000DC018C91823311F4F8019082C7010E94EB
:100CE0009601DC018C91833311F4F8018082C701F5
:100CF0000E949601DC018C91843319F42AE4F801F6
:100D00002083C7010E949601DC018C91853319F480
:100D10002AE5F8012083C7010E949601DC018C912D
:100D2000863319F42AE6F8012083C7010E94960150
:100D3000DC018C91873319F42AE7F8012083C7017D
:100D40000E949601DC018C91883319F42AE8F8019D
:100D50002083C7010E949601DC018C91893319F42C
:100D60002AE9F8012083C7010E949601DC018C91D9
:100D70008E3219F42FEFF80120830F5F1F4F88CFB9
:100D80001FA30EA3B7018AA19BA10E94150C36CF09
:100D90000E94A20A8AA19BA19093D2028093D102C1
:100DA0008CA19DA19093D4028093D3028EA19FA188
:100DB0009093D6028093D5021BA21AA21DA21CA258
:100DC0003CCF11922150310957CF4DB75EB7481B28
:100DD000590B0FB6F8945EBF0FBE4DBF2DB73EB78F
:100DE0002F5F3F4F39A728A74901880E991E76012A
:100DF000D9018A169B0629F1F701A1907F0170E0C5
:100E000060E050E040E0B12C8501042E02C0159551
:100E100007950A94E2F700FF0DC007E010E0041BFD
:100E2000150BF10102C0EE0FFF1F0A95E2F78F01CB
:100E30006E2B712B4F5F5F4F4830510529F76D9333
:100E4000D8CFD60115961C92159716961C922B5F3B
:100E50003F4F4FE05DE1E8A5F9A56191F9A7E8A74B
:100E6000562768E070E0DA01440F551FB7FF04C051
:100E7000F1E24F27F0E15F2761507109A1F768A502
:100E800079A52617370739F770E060E030E020E0F9
:100E9000F101022E02C0EE0FFF1F0A94E2F7E423D5
:100EA000F523EF2B69F0EFE0F0E0E21BF30BD1014B
:100EB00002C0AA0FBB1FEA95E2F7FD016A2B7F2B48
:100EC0002F5F3F4F2031310519F7F601E80FF91F69
:100ED00070836183B7E0CB0ED11CF20161912F01C9
:100EE00084E392E00E944302C414D504B1F70FB624
:100EF000F8947EBE0FBE6DBE80912F02909130029D
:100F000001969093300280932F0213CE8091D102EC
:100F10009091D202009711F00C94A20A0895EF92DA
:100F20000F931F93CF93DF93E80134E047FD34E143
:100F3000042E000C550B57FF03C0519541955109E4
:100F4000E32E022F242FAE010E94AD07CE01DF91C8
:100F5000CF911F910F91EF9008958F929F92AF9232
:100F6000BF92CF92DF92EF92FF920F931F93CF9396
:100F7000DF9300D000D000D0CDB7DEB76A01F22EEB
:100F8000B02E102FFBE3AF2EA01608F41BE31F5F5B
:100F9000012F27E0AE014F5F5F4F0E942609BC0181
:100FA0008981982F9970913009F44EC09BE2E1FC41
:100FB00004C09E2D9170E0FC49C05E2D5071E82F59
:100FC000E87083FF55C084E0911101C083E0EF2DEC
:100FD000E81B8F1508F0E0E0D6018E2F20E25523A4
:100FE000C9F1992329F0D6019C93C60101966C01A1
:100FF00096012D5F3F4FE2FE33C08EE4D6018C9305
:1010000091E411969C93119712968C93D9018E2F8F
:1010100090E281112AC0E20FF32FF11D10828EEFB2
:101020009FEF29960FB6F894DEBF0FBECDBFDF91BC
:10103000CF911F910F91FF90EF90DF90CF90BF90D5
:10104000AF909F908F9008959DE2B7CF90E2B5CF7B
:101050002D9381508111FCCFCE0ED11CE0E0C1CF89
:101060008EE6D6018C9391E6CCCF9D938150D1CF63
:10107000482F447082FF3DC084E0911101C083E09D
:101080008F1510F4EF2DE81BD6018E2F20E255238B
:1010900009F1992329F0D6019C93C60101966C01B0
:1010A00096012D5F3F4FE2FE1BC089E4D6018C9371
:1010B0008EE411968C93119786E412968C93D90145
:1010C0008E2F90E2882309F4A6CF9D938150FACF0A
:1010D0002D9381508111FCCFCE0ED11CE0E0D9CFF1
:1010E00089E6D6018C938EE611968C93119786E64D
:1010F000E4CF9B0177FF02C030E020E0A1E0B0E048
:10110000911102C0B0E0A0E0F9013196AE0FBF1F0F
:101110008B2C912CBB2009F461C05401EFEFAE1A67
:10112000BE0AAA0DBB1DFA161B0619F014F04F2DAE
:101130004A1B511188C0E3FC59C07601A42FB0E2CC
:10114000A1114FC0C40ED11C992309F45BC040E02B
:10115000D6011196F60190836D01552309F448C01C
:10116000012F060F9A81582F507184FF03C09133CD
:1011700009F4015010160CF047C0093008F008E0DF
:10118000EEE2FE2E5B01A01AB108850191948194D4
:1011900091082F3F320729F4D601FC92F6013196CF
:1011A0006F016217730794F1021713077CF5DB01D7
:1011B000A21BB30BAA24A394B12CAC0EBD1EAA0D86
:1011C000BB1D11968C9121503109D601119628151D
:1011D0003905F4F0F60180836D01DBCFB12CA12C31
:1011E000A0CFF701B1937F01A150AACF9111B0CF49
:1011F000D601942F50E302C05D9391509111FCCF22
:10120000C40ED11C40E0ACCF01E0BACF80E3DBCF0D
:101210006217730731F4963388F4953311F455232C
:1012200069F0F6018083FD01842F90E2811108C0EE
:10123000A40FB11D1C9290E080E0F3CE81E3F1CFCA
:1012400091938150F3CF911183CF8ACF283008F04A
:1012500027E03327DA01990F311D87FD9160009651
:101260006105710539F432602E5F3D9330E32A95B4
:10127000E1F708959F3F30F080387105610509F06E
:101280003C5F3C5F3D93913008F08068911DDF9397
:10129000CF931F930F93FF92EF92192F987F9695FC
:1012A000E92F96959695E90FFF27EE59FE4F99275E
:1012B0003327EE24FF24A701E70105900894079443
:1012C00028F4360FE71EF81E491F511D660F771FC1
:1012D000881F991F0694A1F70590079428F4E70E3C
:1012E000F81E491F561FC11D770F881F991F661FC3
:1012F0000694A1F70590079428F4F80E491F561F8D
:10130000C71FD11D880F991F661F771F0694A1F76D
:101310000590079420F4490F561FC71FD81F990F37
:10132000661F771F881F0694A9F784911095177080
:1013300041F0D695C79557954795F794E7941A9538
:10134000C1F7E8E0F1E06894159015913591659149
:10135000959105907FE27395E118F10A430B560BC6
:10136000C90BD009C0F7E10CF11E431F561FC91F5E
:10137000D01D7EF4703311F48A95E6CFE8940150C5
:1013800030F0080F0AF40027021708F4202F2395E5
:10139000022F7A3328F079E37D932A95E9F710C07C
:1013A0007D932A9589F606949795679537951795B5
:1013B0001794E118F10A430B560BC90BD00998F0AA
:1013C00023957E9173957A3308F070E37C93201314
:1013D000B8F77E9170617D9330F0839571E37D93D2
:1013E00070E32A95E1F71124EF90FF900F911F9180
:1013F000CF91DF91992787FD90950895EE0FFF1FFC
:10140000881F8BBF0790F691E02D19940F931F93BF
:10141000CF93DF938230910510F482E090E0E09169
:10142000D902F091DA0230E020E0B0E0A0E030979D
:1014300099F42115310509F44AC0281B390B2430D1
:101440003105D8F58A819B816115710589F1FB0110
:1014500093838283FE0111C04081518102811381F7
:1014600048175907E0F04817590799F4109761F0A9
:1014700012960C93129713961C933296CF01DF911C
:10148000CF911F910F9108950093D9021093DA0222
:10149000F4CF2115310551F04217530738F0A90157
:1014A000DB019A01BD01DF01F801C1CFEF01F9CFE6
:1014B0009093DA028093D902CDCFFE01E20FF31FA1
:1014C000819391932250310939832883D7CF20917A
:1014D000D7023091D802232B41F42091030230919E
:1014E00004023093D8022093D70220910102309158
:1014F00002022115310541F42DB73EB74091050296
:1015000050910602241B350BE091D702F091D802CE
:10151000E217F307A0F42E1B3F0B2817390778F0CA
:10152000AC014E5F5F4F2417350748F04E0F5F1F29
:101530005093D8024093D702819391939FCFF0E0CC
:10154000E0E09CCFCF93DF930097E9F0FC01329766
:1015500013821282A091D902B091DA02ED0130E03B
:1015600020E01097A1F420813181820F931F2091F8
:10157000D7023091D8022817390709F061C0F093DB
:10158000D802E093D702DF91CF910895EA01CE17F8
:10159000DF07E8F54A815B819E0141155105B1F7EE
:1015A000E901FB83EA8349915991C40FD51FEC17D8
:1015B000FD0761F4808191810296840F951FE901F6
:1015C00099838883828193819B838A83F0E0E0E022
:1015D00012968D919C9113970097B9F52D913C919E
:1015E0001197CD010296820F931F2091D70230915F
:1015F000D8022817390739F6309751F51092DA02D8
:101600001092D902B093D802A093D702BCCFD38353
:10161000C28340815181840F951FC817D90761F497
:101620004E5F5F4F88819981480F591F51834083D6
:101630008A819B81938382832115310509F0B0CF84
:10164000F093DA02E093D9029ECFFD01DC01C0CF16
:1016500013821282D7CF4F925F926F927F928F92B6
:101660009F92AF92BF92CF92DF92EF92FF920F9331
:101670001F93CF93DF938C01009799F4CB01DF91F7
:10168000CF911F910F91FF90EF90DF90CF90BF907F
:10169000AF909F908F907F906F905F904F900C9441
:1016A000060AFC01E60FF71F9C0122503109E217E0
:1016B000F30708F4AEC0D901CD91DC911197C6179C
:1016C000D70720F1C530D10578F0CE0104978617F1
:1016D000970750F0C61BD70B2297C193D1936D93F8
:1016E0007C93CF010E94A20AC801DF91CF911F9184
:1016F0000F91FF90EF90DF90CF90BF90AF909F90B1
:101700008F907F906F905F904F9008955B01AC1A1F
:10171000BD0A4C018C0E9D1EA091D902B091DA0237
:10172000512C412CF12CE12C109731F58091D702EE
:101730009091D8028815990509F05CC046165706A5
:1017400008F058C08091010290910202009741F484
:101750008DB79EB74091050250910602841B950BF0
:10176000E817F90708F055C0F093D802E093D702C4
:10177000F90171836083B8CF8D919C911197129676
:101780006C90129713967C901397A815B90559F58C
:101790006C0142E0C40ED11CCA14DB0420F1AC0180
:1017A0004A195B09DA011296159780F062827382FA
:1017B00051834083D9016D937C93E114F10471F05E
:1017C000D7011396FC93EE9312978ECF22968C0F2F
:1017D0009D1FF90191838083F301EFCFF093DA022B
:1017E000E093D90281CF4816590608F42C017D01F7
:1017F000D3019ACFCB010E94060A7C01009749F0E1
:10180000AE01B8010E940C0CC8010E94A20A870117
:101810006BCF10E000E068CFFB01DC0102C001905B
:101820000D9241505040D8F70895FB01DC01019022
:101830000D920020E1F7089511E0C2E6D1E000E04A
:1018400006C0802FFE010E94FE092196011DC336AD
:0C185000D10780E00807A9F7F894FFCF4B
:10185C00010000DB02800000000042000008420092
:10186C0000E841000000004302AD01DA0190020BD8
:06187C0002E901FD01007C
:00000001FF
