:100000000C9424010C9445010C9445010C94450179
:100010000C9445010C9445010C9445010C94450148
:100020000C9445010C9445010C9445010C94450138
:100030000C9445010C9445010C9445010C94450128
:100040000C9445010C94B0030C9445010C944501AB
:100050000C9445010C9445010C9445010C946603E5
:100060000C9445010C9445010C9445010C944501F8
:100070000C9445010C9445010C9445010C944501E8
:100080000C9445010C9445010C9445010C944501D8
:100090000C9445010C9445010C9445010C944501C8
:1000A0000C9445010C9445010C9445010C944501B8
:1000B0000C9445010C9445010C9445010C944501A8
:1000C0000C9445010C9445010C9445010C94450198
:1000D0000C9445010C9445010C9445010C94450188
:1000E0000C9445010C94A9010C94C5010C949F013A
:1000F0000C9496010C94AD010C94BF010C94C901B1
:100100000C9499010C9492010C948A010C948E0128
:100110000C94B1010C94BB010C9484010C94A301C8
:100120000C94B7010C94C4010000200023002600A9
:1001300029002C002F0032000001000003010601FD
:10014000090100000A0B02090C0D0E080703040147
:10015000000000000000000000000000000000009F
:10016000000000000000000000000000000012116C
:10017000100000000000000000000000000000006F
:100180000000000000000000000022002500280000
:100190002B002E003100340002010000050108018F
:1001A0000B0100002100240027002A002D00300050
:1001B000330001010000040107010A0105050505DE
:1001C000070508080808020202020A0A08080404CF
:1001D00004040101010101010101030303030303FD
:1001E0000303040707070C0C0C0C0C0C0C0C02028C
:1001F000020206060606060606060B0B0B0B0B0B89
:100200000B0B010210202008081020401020408015
:1002100002010201080402010102040810204080CA
:100220008040201008040201800402018040201058
:1002300008040201080402010102040810204080A1
:10024000010204081020408011241FBECFEFD1E22C
:10025000DEBFCDBF00E00CBF12E0A0E0B2E0E0E600
:10026000FBE000E00BBF02C007900D92A232B10785
:10027000D9F722E0A2E2B2E001C01D92A137B20795
:10028000E1F70E941D040C94AE050C94000090E070
:10029000FC01EE5FFD4F249184549E4FFC0184913C
:1002A000882399F090E0880F991FFC01EE55FE4FCE
:1002B000A591B491FC01E857FE4F859194918FB7B9
:1002C000F894EC91E22BEC938FBF0895815082312A
:1002D00008F05AC0E82FF0E08827EE58FE4F8F4F05
:1002E0000C9492059201960184018A018E01C40149
:1002F00099019F01A301A901AD01B101B701BB01A2
:10030000C401BF01C501C901809180008F7780932E
:1003100080000895809180008F7DF9CF80918000CA
:10032000877FF5CF84B58F7784BD089584B58F7DA1
:10033000FBCF8091B0008F778093B00008958091BB
:10034000B0008F7DF9CF809190008F7780939000DF
:100350000895809190008F7DF9CF80919000877FE4
:10036000F5CF8091A0008F778093A00008958091B1
:10037000A0008F7DF9CF8091A000877FF5CF80917D
:1003800020018F77809320010895809120018F7D37
:10039000F9CF80912001877FF5CFCF93DF93282F6E
:1003A00030E0F901EE5BFE4F8491F901EE5FFD4F05
:1003B000D491F901E454FE4FC491CC23A1F08111F2
:1003C0000E946601EC2FF0E0EE0FFF1FE85DFE4F8C
:1003D000A591B491EC91ED2381E090E009F480E0E7
:1003E000DF91CF91089580E090E0FACF1F93CF93F3
:1003F000DF93282F30E0F901EE5BFE4F8491F90185
:10040000EE5FFD4FD491F901E454FE4FC491CC232B
:10041000A9F0162F81110E946601EC2FF0E0EE0F7B
:10042000FF1FE857FE4FA591B4918FB7F894EC9158
:10043000111108C0D095DE23DC938FBFDF91CF91DF
:100440001F910895DE2BF8CF3FB7F89480912902D1
:1004500090912A02A0912B02B0912C0226B5A89B64
:1004600005C02F3F19F00196A11DB11D3FBFBA2F46
:10047000A92F982F8827BC01CD01620F711D811D06
:10048000911D42E0660F771F881F991F4A95D1F78B
:1004900008958F929F92AF92BF92CF92DF92EF9288
:1004A000FF924B015C010E9424026B017C010E94BF
:1004B00024026C197D098E099F09683E73408105ED
:1004C0009105A8F321E0821A9108A108B10888EEED
:1004D000C80E83E0D81EE11CF11C81149104A10414
:1004E000B10429F7FF90EF90DF90CF90BF90AF90CD
:1004F0009F908F90089561E08EE10E94F6018BE35A
:100500009FE10197F1F760E08EE10C94F601EF9224
:10051000FF920F931F93CF93DF93CDB7DEB72C9746
:100520000FB6F894DEBF0FBECDBF8CE0E1E0F2E085
:10053000DE01119601900D928A95E1F78E010F5F11
:100540001F4F7E018DE0E80EF11CF80180810E5FE7
:100550001F4F60E00E94F6010E151F05B1F72C96A3
:100560000FB6F894DEBF0FBECDBFDF91CF911F91C4
:100570000F91FF90EF900895EF92FF920F931F93CA
:10058000CF93DF930E94870261E086E10E94F6012B
:1005900089E6E82E82E0F82EF701848195810AE051
:1005A00010E0B8010E947E05FB01EE0FFF1FE35F24
:1005B000FD4F808188B9CBE3DFE1CE010197F1F7F0
:1005C0000E94870261E087E10E94F6010E947B029F
:1005D000F70184819581B8010E947E05FC01EE0F30
:1005E000FF1FE35FFD4F808188B9CE010197F1F7CE
:1005F0000E94870261E088E10E94F601F701828192
:100600009381B8010E947E05FB01EE0FFF1FE35F9F
:10061000FD4F808188B9CE010197F1F70E948702D2
:1006200061E089E10E94F6010E947B02F70182816C
:100630009381B8010E947E05FC01EE0FFF1FE35F6E
:10064000FD4F808188B9CE010197F1F70E948702A2
:1006500061E08AE10E94F601F70180819181B80191
:100660000E947E05FB01EE0FFF1FE35FFD4F8081BF
:1006700088B9CE010197F1F70E94870261E08BE112
:100680000E94F601F70180819181B8010E947E05E8
:10069000FC01EE0FFF1FE35FFD4F808188B92197BA
:1006A000F1F7DF91CF911F910F91FF90EF90089597
:1006B00061E085E10E94F60168EC70E080E090E086
:1006C0000E94490260E085E10C94F6011F920F92AE
:1006D0000FB60F9211242F933F938F939F93AF9355
:1006E000BF938091250290912602A0912702B0919C
:1006F00028023091240223E0230F2D3758F501966C
:10070000A11DB11D209324028093250290932602FF
:10071000A0932702B09328028091290290912A0287
:10072000A0912B02B0912C020196A11DB11D8093C6
:10073000290290932A02A0932B02B0932C02BF911E
:10074000AF919F918F913F912F910F900FBE0F907E
:100750001F90189526E8230F0296A11DB11DD2CF38
:100760001F920F920FB60F9211240BB60F922F9378
:100770003F934F935F936F937F938F939F93AF9329
:10078000BF93EF93FF9380912202909123028130D7
:10079000910509F04CC080910002882361F080919E
:1007A000690290916A028B339105E4F4019690936B
:1007B0006A02809369021092230210922202FF9132
:1007C000EF91BF91AF919F918F917F916F915F91C9
:1007D0004F913F912F910F900BBE0F900FBE0F9036
:1007E0001F90189580916B0290916C028B3391054C
:1007F00064F410926A0210926902019690936C025E
:1008000080936B020E945803D6CF80916D02909125
:100810006E02019690936E0280936D0210926C02AC
:1008200010926B0210926A0210926902EBCF01964D
:100830009093230280932202C2CFCF93DF9300D004
:1008400000D0CDB7DEB7789484B5826084BD84B51E
:10085000816084BD85B5826085BD85B5816085BDBB
:1008600080916E00816080936E0010928100809173
:1008700081008260809381008091810081608093FB
:100880008100809180008160809380008091B10020
:1008900084608093B1008091B00081608093B0004B
:1008A000809191008260809391008091910081609D
:1008B000809391008091900081608093900080915E
:1008C000A10082608093A1008091A100816080934B
:1008D000A1008091A00081608093A00080912101FF
:1008E00082608093210180912101816080932101A8
:1008F0008091200181608093200180917A00846042
:1009000080937A0080917A00826080937A0080914F
:100910007A00816080937A0080917A008068809369
:100920007A001092C1008EE10E94470186E10E9488
:10093000470187E10E94470188E10E94470189E160
:100940000E9447018AE10E9447018BE10E94470112
:10095000F8941092800010928100109285001092FD
:1009600084008FEF9FEF909389008093880080919F
:1009700081008860809381008091810085608093F0
:10098000810080916F00826080936F00789466246C
:10099000639426E0722E30E0E32E30E0F32E0E94C6
:1009A000BC028AE00E94CD014C018BE00E94CD0187
:1009B0005C0182E30E94CD016C0183E30E94CD01C2
:1009C0008C016EE170E080E090E00E94490289288D
:1009D000D1F48AE00E94CD01892BA9F08091000218
:1009E00086258093000280910002882361F0109296
:1009F0006A021092690210926C0210926B021092BD
:100A00006E0210926D02AB2831F58BE00E94CD0191
:100A1000892B09F180916F0290917002789ED0012C
:100A2000799EB00D1124A35DBD4FE9E6F2E0872D5C
:100A300001900D928A95E1F780916F02909170027A
:100A400001969093700280936F020A9724F010929F
:100A5000700210926F02CD2849F482E30E94CD010A
:100A6000892B21F01092700210926F02011511056E
:100A700009F03DC083E30E94CD01892BC1F186E0DE
:100A8000E9E6F2E0DE01119601900D928A95E1F718
:100A900080910002811122C09DE2C92E92E0D92EE0
:100AA00080916F029091700208171907BCF486E0DC
:100AB000F601A9E6B2E001900D928A95E1F782E392
:100AC000A82EB12C0E94BC0281E0A81AB108D1F76F
:100AD0000F5F1F4F86E0C80ED11CE2CF86E0FE01FB
:100AE0003196A9E6B2E001900D928A95E1F7E11402
:100AF000F10409F454CF0E94000051CF97FB072E58
:100B000016F4009407D077FD09D00E949A0507FCDF
:100B100005D03EF4909581959F4F0895709561950D
:100B20007F4F0895EE0FFF1F881F8BBF0790F69130
:100B3000E02D1994AA1BBB1B51E107C0AA1FBB1FC4
:100B4000A617B70710F0A61BB70B881F991F5A9559
:100B5000A9F780959095BC01CD010895F894FFCF39
:100B60000116001700180019001A001B003F0006AC
:100B7000005B004F0066006D007D0007007F006F86
:020B8000000073
:00000001FF
