:100000000C9435000C945D000C945D000C945D0024
:100010000C945D000C945D000C945D000C945D00EC
:100020000C945D000C945D000C945D000C945D00DC
:100030000C945D000C945D000C945D000C945D00CC
:100040000C941B020C945D000C94E9010C94C30108
:100050000C9465020C945D000C945D000C945D00A2
:100060000C945D000C945D00FA0311241FBECFEFC9
:10007000D8E0DEBFCDBF11E0A0E0B1E0EEE5F8E0F2
:1000800002C005900D92AC32B107D9F721E0ACE285
:10009000B1E001C01D92A43DB207E1F710E0C5E355
:1000A000D0E004C02197FE010E942704C433D10789
:1000B000C9F70E9470020C942D040C940000AF92BA
:1000C000BF92CF92DF92EF92FF920F931F93CF9345
:1000D000DF936C017B018B01040F151FEB015E01A7
:1000E000AE18BF08C017D10759F06991D601ED913C
:1000F000FC910190F081E02DC6010995892B79F7DB
:10010000C501DF91CF911F910F91FF90EF90DF908C
:10011000CF90BF90AF900895FC01538D448D252F53
:1001200030E0842F90E0821B930B541710F0CF9691
:10013000089501970895FC01918D828D981761F0C3
:10014000A28DAE0FBF2FB11D5D968C91928D9F5FDA
:100150009F73928F90E008958FEF9FEF0895FC01B9
:10016000918D828D981731F0828DE80FF11D858D6C
:1001700090E008958FEF9FEF0895FC01918D228DFF
:10018000892F90E0805C9F4F821B91098F73992784
:10019000089587E391E00E94BD0021E0892B09F4D6
:1001A00020E0822F089580E090E0892B29F00E94C2
:1001B000C90081110C9400000895FC01A48DA80FC2
:1001C000B92FB11DA35ABF4F2C91848D90E0019699
:1001D0008F739927848FA689B7892C93A089B189B9
:1001E0008C91837080648C93938D848D981306C05A
:1001F0000288F389E02D80818F7D80830895EF92BE
:10020000FF920F931F93CF93DF93EC0181E0888FD0
:100210009B8D8C8D98131AC0E889F989808185FFA0
:1002200015C09FB7F894EE89FF896083E889F98942
:1002300080818370806480839FBF81E090E0DF9144
:10024000CF911F910F91FF90EF900895F62E0B8D97
:1002500010E00F5F1F4F0F731127E02E8C8D8E1152
:100260000CC00FB607FCFACFE889F989808185FFB9
:10027000F5CFCE010E94DD00F1CFEB8DEC0FFD2F0D
:10028000F11DE35AFF4FF0829FB7F8940B8FEA8974
:10029000FB8980818062CFCFCF93DF93EC01888D83
:1002A0008823B9F0AA89BB89E889F9898C9185FDF1
:1002B00003C0808186FD0DC00FB607FCF7CF8C917F
:1002C00085FFF2CF808185FFEDCFCE010E94DD005A
:1002D000E9CFDF91CF9108953FB7F8948091310134
:1002E00090913201A0913301B091340126B5A89BC1
:1002F00005C02F3F19F00196A11DB11D3FBFBA2FB8
:10030000A92F982F8827BC01CD01620F711D811D77
:10031000911D42E0660F771F881F991F4A95D1F7FC
:1003200008958F929F92AF92BF92CF92DF92EF92F9
:10033000FF924B015C010E946C016B017C010E94E9
:100340006C016C197D098E099F09683E7340810517
:100350009105A8F321E0821A9108A108B10888EE5E
:10036000C80E83E0D81EE11CF11C81149104A10485
:10037000B10429F7FF90EF90DF90CF90BF90AF903E
:100380009F908F9008951F920F920FB60F92112495
:100390002F933F934F935F936F937F938F939F938D
:1003A000AF93BF93EF93FF9387E391E00E94DD004B
:1003B000FF91EF91BF91AF919F918F917F916F913D
:1003C0005F914F913F912F910F900FBE0F901F9013
:1003D00018951F920F920FB60F9211242F938F939F
:1003E0009F93EF93FF93E0914701F0914801808143
:1003F000E0914D01F0914E0182FD1BC090818091F2
:1004000050018F5F8F7320915101821741F0E0916D
:100410005001F0E0E95CFE4F958F80935001FF9111
:10042000EF919F918F912F910F900FBE0F901F9082
:1004300018958081F4CF1F920F920FB60F9211245E
:100440002F933F938F939F93AF93BF9380912D01F1
:1004500090912E01A0912F01B091300130912C018B
:1004600023E0230F2D3758F50196A11DB11D2093D0
:100470002C0180932D0190932E01A0932F01B09316
:1004800030018091310190913201A0913301B091FE
:1004900034010196A11DB11D809331019093320169
:1004A000A0933301B0933401BF91AF919F918F918D
:1004B0003F912F910F900FBE0F901F90189526E837
:1004C000230F0296A11DB11DD2CF1F920F920FB61E
:1004D0000F9211245A980F900FBE0F901F901895ED
:1004E000CF93DF93CDB7DEB7E0970FB6F894DEBFBA
:1004F0000FBECDBF789484B5826084BD84B5816021
:1005000084BD85B5826085BD85B5816085BD8091DE
:100510006E00816080936E00109281008091810056
:10052000826080938100809181008160809381004E
:10053000809180008160809380008091B100846010
:100540008093B1008091B00081608093B000809171
:100550007A00846080937A0080917A008260809330
:100560007A0080917A00816080937A0080917A008D
:10057000806880937A001092C10068EE73E080E09A
:1005800090E00E94910187E08AB988EF8BB9E091F1
:100590004701F091480182E08083E0914301F091AE
:1005A00044011082E0914501F09146018FEC808377
:1005B00010924F01E0914B01F0914C0186E0808355
:1005C000E0914901F0914A01808180618083E0914E
:1005D0004901F0914A01808188608083E09149015E
:1005E000F0914A01808180688083E0914901F09117
:1005F0004A0180818F7D80838091C10084648093D3
:10060000C1008091C00081608093C00061E070E013
:1006100080E090E00E94910189EE809336018E0186
:100620000F5F1F4F5E0167E1A60EB11C87E0282E09
:10063000312CEE24E394F12C2E0189E1480E511C5B
:10064000BFE06B2E712C87E391E00E94BD00892BE7
:10065000B1F087E391E00E949B0090910001992303
:10066000D9F09091360198130AC01092000191E0E0
:10067000909335018091C0008E7F8093C00080E010
:10068000882E80E0982E8928F1F20E94C9008823E4
:10069000D1F20E940000D4CF80913501882379F3F4
:1006A00010923501A1E0A09300015A9A61E070E038
:1006B00080E090E00E94910188E1E1E0F1E0D80162
:1006C00001900D928A95E1F7FE017996BF0118AB72
:1006D0000FA7AFA5B8A94D91B8ABAFA730E020E008
:1006E00090E080E050E06A01082E02C0D594C794E3
:1006F0000A94E2F7C0FE0CC06101C81AD90A47018A
:1007000002C0880C991CCA94E2F7640128293D298B
:1007100001968830910539F7DB012D93BD018FA437
:1007200098A88A149B04A9F6AF014A5E5F4F8FE038
:100730009DE12191922725E030E0BC01880F991FAF
:1007400077FF04C061E2862760E1962721503109D6
:10075000A1F74E175F0769F750E040E030E020E076
:10076000B701022E02C0660F771F0A94E2F76823D2
:100770007923672B61F0B301621B730BD70102C0B1
:10078000AA0FBB1F6A95E2F7BD014A2B572B2F5FBB
:100790003F4F2031310521F75F8B488F912C812C01
:1007A0006801B1E08B16910449F4C601801B910BDE
:1007B00068E3029769F0D6016C910AC0E4E08E16F6
:1007C0009104C9F7C601801B910B6EE0039799F75E
:1007D00087E391E00E94FF00BFEFCB1ADB0AC4144D
:1007E000D504F9F6EFEF8E1A9E0AF5E08F16910404
:1007F000B9F645CFE7E3F1E01382128288EE93E089
:10080000A0E0B0E084839583A683B7838DE191E077
:100810009183808385EC90E09587848784EC90E0D9
:100820009787868780EC90E0918B808B81EC90E0BD
:10083000938B828B82EC90E0958B848B86EC90E09E
:10084000978B868B118E128E138E148E0895EE0F59
:0E085000FF1F0590F491E02D0994F894FFCF5E
:10085E000101020301040200050603010708000559
:10086E00090A0B0C0D0402000000000000FF005FDF
:0C087E00008C004C01BD009B00AF00008E
:00000001FF
